:020000040800F2
:1000000000500020D11100084D11000853110008C4
:10001000591100085F110008651100080000000078
:100020000000000000000000000000006B1100084C
:100030007711000800000000831100088F110008EC
:1000400019120008191200081912000819120008E4
:1000500019120008191200081912000819120008D4
:1000600019120008191200081912000819120008C4
:1000700019120008191200081912000819120008B4
:1000800019120008191200081912000819120008A4
:100090001912000819120008191200081912000894
:1000A0001912000819120008191200081912000884
:1000B0009D110008191200081912000819120008F1
:1000C0001912000819120008191200081912000864
:1000D00019120008B11100081912000819120008BD
:1000E0001912000819120008191200080000000077
:1000F0000000000000000000000000000000000000
:0C01000000000000000000005FF808F1A3
:1001100010B5054C237833B9044B13B10448AFF341
:1001200000800123237010BD0C000020000000009F
:10013000CC52000808B5034B1BB103490348AFF389
:10014000008008BD0000000010000020CC52000814
:1001500081F0004102E000BF83F0004330B54FEA78
:1001600041044FEA430594EA050F08BF90EA020FE5
:100170001FBF54EA000C55EA020C7FEA645C7FEA78
:10018000655C00F0E2804FEA5454D4EB5555B8BF9B
:100190006D420CDD2C4480EA020281EA030382EA0C
:1001A000000083EA010180EA020281EA0303362D9E
:1001B00088BF30BD11F0004F4FEA01314FF4801C71
:1001C0004CEA113102D0404261EB410113F0004F83
:1001D0004FEA03334CEA133302D0524263EB43033A
:1001E00094EA050F00F0A780A4F10104D5F1200ED8
:1001F0000DDB02FA0EFC22FA05F2801841F1000133
:1002000003FA0EF2801843FA05F359410EE0A5F106
:1002100020050EF1200E012A03FA0EFC28BF4CF037
:10022000020C43FA05F3C01851EBE37101F00045ED
:1002300007D54FF0000EDCF1000C7EEB00006EEBFA
:100240000101B1F5801F1BD3B1F5001F0CD3490884
:100250005FEA30004FEA3C0C04F101044FEA4452DB
:1002600012F5800F80F09A80BCF1004F08BF5FEA62
:10027000500C50F1000041EB045141EA050130BD42
:100280005FEA4C0C404141EB0101013C28BFB1F554
:10029000801FE9D291F0000F04BF01460020B1FA9F
:1002A00081F308BF2033A3F10B03B3F120020CDA72
:1002B0000C3208DD02F1140CC2F10C0201FA0CF050
:1002C00021FA02F10CE002F11402D8BFC2F1200CB5
:1002D00001FA02F120FA0CFCDCBF41EA0C0190406B
:1002E000E41AA2BF01EB0451294330BD6FEA0404B4
:1002F0001F3C1CDA0C340EDC04F11404C4F120029F
:1003000020FA04F001FA02F340EA030021FA04F3B0
:1003100045EA030130BDC4F10C04C4F1200220FA07
:1003200002F001FA04F340EA0300294630BD21FA45
:1003300004F0294630BD94F0000F83F4801306BF0B
:1003400081F480110134013D4EE77FEA645C18BFFF
:100350007FEA655C29D094EA050F08BF90EA020F96
:1003600005D054EA000C04BF1946104630BD91EA8E
:10037000030F1EBF0021002030BD5FEA545C05D191
:100380004000494128BF41F0004130BD14F58004D0
:100390003CBF01F5801130BD01F0004545F0FE4144
:1003A00041F470014FF0000030BD7FEA645C1ABF79
:1003B000194610467FEA655C1CBF0B46024650EAB0
:1003C000013406BF52EA033591EA030F41F40021DC
:1003D00030BD00BF90F0000F04BF0021704730B562
:1003E0004FF4806404F132044FF000054FF0000137
:1003F00050E700BF90F0000F04BF0021704730B5F8
:100400004FF4806404F1320410F0004548BF4042CC
:100410004FF000013EE700BF42004FEAE2014FEA21
:1004200031014FEA02701FBF12F07F4393F07F4FFC
:1004300081F06051704732F07F4208BF704793F0FF
:100440007F4F04BF41F40021704730B54FF4607412
:1004500001F0004521F000411CE700BF50EA010215
:1004600008BF704730B54FF000050AE050EA0102BE
:1004700008BF704730B511F0004502D5404261EB2E
:1004800041014FF4806404F132045FEA915C3FF46F
:10049000D8AE4FF003025FEADC0C18BF03325FEA0C
:1004A000DC0C18BF033202EBDC02C2F1200300FABD
:1004B00003FC20FA02F001FA03FE40EA0E0021FAE2
:1004C00002F11444BDE600BF70B54FF0FF0C4CF4D0
:1004D000E06C1CEA11541DBF1CEA135594EA0C0F82
:1004E00095EA0C0F00F0DEF82C4481EA030621EABD
:1004F0004C5123EA4C5350EA013518BF52EA0335F8
:1005000041F4801143F4801338D0A0FB02CE4FF0A9
:100510000005E1FB02E506F00042E0FB03E54FF0D9
:100520000006E1FB03569CF0000F18BF4EF0010ED1
:10053000A4F1FF04B6F5007F64F5407404D25FEACD
:100540004E0E6D4146EB060642EAC62141EA555180
:100550004FEAC52040EA5E504FEACE2EB4F1FD0CC2
:1005600088BFBCF5E06F1ED8BEF1004F08BF5FEA40
:10057000500E50F1000041EB045170BD06F00046F2
:1005800046EA010140EA020081EA0301B4EB5C049F
:10059000C2BFD4EB0C0541EA045170BD41F4801197
:1005A0004FF0000E013C00F3AB8014F1360FDEBFBC
:1005B000002001F0004170BDC4F10004203C35DA98
:1005C0000C341BDC04F11404C4F1200500FA05F31B
:1005D00020FA04F001FA05F240EA020001F00042BC
:1005E00021F0004110EBD37021FA04F642EB060132
:1005F0005EEA430E08BF20EAD37070BDC4F10C045C
:10060000C4F1200500FA04F320FA05F001FA04F21F
:1006100040EA020001F0004110EBD37041F100010B
:100620005EEA430E08BF20EAD37070BDC4F1200516
:1006300000FA05F24EEA020E20FA04F301FA05F27E
:1006400043EA020321FA04F001F0004121FA04F226
:1006500020EA020000EBD3705EEA430E08BF20EAF6
:10066000D37070BD94F0000F0FD101F00046400030
:1006700041EB010111F4801F08BF013CF7D041EAB2
:10068000060195F0000F18BF704703F000465200B6
:1006900043EB030313F4801F08BF013DF7D043EA87
:1006A0000603704794EA0C0F0CEA135518BF95EA3D
:1006B0000C0F0CD050EA410618BF52EA4306D1D1C4
:1006C00081EA030101F000414FF0000070BD50EAE3
:1006D000410606BF1046194652EA430619D094EA6D
:1006E0000C0F02D150EA013613D195EA0C0F05D157
:1006F00052EA03361CBF104619460AD181EA0301AB
:1007000001F0004141F0FE4141F470014FF0000062
:1007100070BD41F0FE4141F4780170BD70B54FF0FD
:10072000FF0C4CF4E06C1CEA11541DBF1CEA13557D
:1007300094EA0C0F95EA0C0F00F0A7F8A4EB05045F
:1007400081EA030E52EA03354FEA013100F0888056
:100750004FEA03334FF0805545EA131343EA12631F
:100760004FEA022245EA111545EA10654FEA0026D4
:100770000EF000419D4208BF964244F1FD0404F58D
:10078000407402D25B084FEA3202B61A65EB0305E9
:100790005B084FEA32024FF480104FF4002CB6EBA6
:1007A000020E75EB030E22BFB61A754640EA0C0026
:1007B0005B084FEA3202B6EB020E75EB030E22BF66
:1007C000B61A754640EA5C005B084FEA3202B6EBA7
:1007D000020E75EB030E22BFB61A754640EA9C0066
:1007E0005B084FEA3202B6EB020E75EB030E22BF36
:1007F000B61A754640EADC0055EA060E18D04FEAF4
:10080000051545EA16754FEA06164FEAC30343EA93
:1008100052734FEAC2025FEA1C1CC0D111F4801F60
:100820000BD141EA00014FF000004FF0004CB6E759
:1008300011F4801F04BF01430020B4F1FD0C88BFF8
:10084000BCF5E06F3FF6AFAEB5EB030C04BFB6EB03
:10085000020C5FEA500C50F1000041EB045170BDF6
:100860000EF0004E4EEA113114EB5C04C2BFD4EB23
:100870000C0541EA045170BD41F480114FF0000EA7
:10088000013C90E645EA060E8DE60CEA135594EA23
:100890000C0F08BF95EA0C0F3FF43BAF94EA0C0F26
:1008A0000AD150EA01347FF434AF95EA0C0F7FF49B
:1008B00025AF104619462CE795EA0C0F06D152EAEF
:1008C00003353FF4FDAE1046194622E750EA4106D3
:1008D00018BF52EA43067FF4C5AE50EA41047FF4E4
:1008E0000DAF52EA43057FF4EBAE12E74FEA410247
:1008F00012F5001215D211D56FF47873B3EB625272
:1009000012D94FEAC12343F0004343EA505311F098
:10091000004F23FA02F018BF404270474FF000002A
:10092000704750EA013005D111F0004008BF6FF068
:10093000004070474FF00000704700BF4FEA41028F
:10094000B2F1E04324BFB3F5001CDCF1FE5C0DD92D
:1009500001F0004C4FEAC0024CEA5070B2F1004F77
:1009600040EB830008BF20F00100704711F0804F7A
:1009700021D113F13872BCBF01F00040704741F43F
:1009800080114FEA5252C2F11802C2F1200C10FA43
:100990000CF320FA02F018BF40F001004FEAC12327
:1009A0004FEAD32303FA0CFC40EA0C0023FA02F3CB
:1009B0004FEA4303CCE77FEA625307D150EA0133A1
:1009C0001EBF4FF0FE4040F44000704701F0004071
:1009D00040F0FE4040F40000704700BF80F000404F
:1009E00002E000BF81F0004142001FBF5FEA410307
:1009F00092EA030F7FEA226C7FEA236C6AD04FEA07
:100A00001262D2EB1363C1BFD2184140484041404B
:100A1000B8BF5B42192B88BF704710F0004F40F4FD
:100A2000000020F07F4018BF404211F0004F41F419
:100A3000000121F07F4118BF494292EA030F3FD0E5
:100A4000A2F1010241FA03FC10EB0C00C3F12003F8
:100A500001FA03F100F0004302D5494260EB400087
:100A6000B0F5000F13D3B0F1807F06D340084FEAF2
:100A7000310102F10102FE2A51D2B1F1004F40EBE7
:100A8000C25008BF20F0010040EA0300704749004F
:100A900040EB0000013A28BFB0F5000FEDD2B0FAEC
:100AA00080FCACF1080CB2EB0C0200FA0CF0AABF0F
:100AB00000EBC25052421843BCBFD04018437047AD
:100AC00092F0000F81F4000106BF80F400000132B3
:100AD000013BB5E74FEA41037FEA226C18BF7FEA8A
:100AE000236C21D092EA030F04D092F0000F08BFCC
:100AF0000846704790EA010F1CBF0020704712F0B3
:100B00007F4F04D1400028BF40F00040704712F1F1
:100B100000723CBF00F50000704700F0004343F056
:100B2000FE4040F4000070477FEA226216BF08468C
:100B30007FEA23630146420206BF5FEA412390EA4F
:100B4000010F40F4800070474FF0000304E000BF45
:100B500010F0004348BF40425FEA000C08BF7047F6
:100B600043F0964301464FF000001CE050EA0102BA
:100B700008BF70474FF000030AE000BF50EA0102CF
:100B800008BF704711F0004302D5404261EB4101BC
:100B90005FEA010C02BF84460146002043F0B643E1
:100BA00008BFA3F18053A3F50003BCFA8CF2083A06
:100BB000A3EBC25310DB01FA02FC634400FA02FC0F
:100BC000C2F12002BCF1004F20FA02F243EB020016
:100BD00008BF20F00100704702F1200201FA02FC78
:100BE000C2F1200250EA4C0021FA02F243EB02006B
:100BF00008BF20EADC7070474FEA4002B2F1FE4FB6
:100C00000FD34FF09E03B3EB12620DD94FEA0023CE
:100C100043F0004310F0004F23FA02F018BF4042A7
:100C200070474FF00000704712F1610F01D142028E
:100C300005D110F0004008BF6FF0004070474FF042
:100C40000000704780B500AF00F0E8FA00F010F83F
:100C5000642000F045FB00F0F7F800F04FF800F0DA
:100C6000C9F800F079F804F01FF804F0B1F8FCE7D7
:100C700080B590B000AF07F1180328220021184674
:100C800004F0F8FA3B1D00221A605A609A60DA609C
:100C90001A610123BB614FF48033FB6100233B6287
:100CA0000123BB6202237B634FF48033BB634FF4A9
:100CB0008013FB6307F11803184601F0C3FE0346D7
:100CC000002B01D000F054F90F237B600223BB609E
:100CD0000023FB604FF480633B6100237B613B1D7D
:100CE0000121184602F030F90346002B01D000F034
:100CF0003FF900BF4037BD4680BD000080B500AF62
:100D0000124B134A1A60114B124A5A600F4B0022C1
:100D10009A600E4B0022DA600C4B4FF480421A614D
:100D20000A4B00225A61094B00229A61074B0022AC
:100D3000DA61064B00221A62044800F0B5FE034651
:100D4000002B01D000F014F900BF80BD2800002066
:100D500000540040A086010080B586B000AF07F1C6
:100D6000080300221A605A609A60DA603B4600224B
:100D70001A605A601E4B4FF080421A601C4B40F2C2
:100D8000DF125A601A4B00229A60194B40F2CF7260
:100D9000DA60174B00221A61154B00229A61144841
:100DA00002F06AFA0346002B01D000F0E1F84FF49C
:100DB0008053BB6007F1080319460D4802F034FC6C
:100DC0000346002B01D000F0D3F800233B60002342
:100DD0007B603B461946064802F006FE0346002BA0
:100DE00001D000F0C5F800BF1837BD4680BD00BF78
:100DF0007C00002080B500AF114B124A1A60104BE6
:100E00004FF4E1325A600E4B00229A600C4B0022E4
:100E1000DA600B4B00221A61094B0C225A61084B15
:100E200000229A61064B0022DA61054802F04CFE6E
:100E30000346002B01D000F09BF800BF80BD00BF2F
:100E4000C40000200038014080B588B000AF07F131
:100E5000100300221A605A609A60DA60404B9B6966
:100E60003F4A43F0100393613D4B9B6903F010032D
:100E7000FB60FB683A4B9B69394A43F0200393615E
:100E8000374B9B6903F02003BB60BB68344B9B6905
:100E9000334A43F004039361314B9B6903F004032D
:100EA0007B607B682E4B9B692D4A43F0080393615E
:100EB0002B4B9B6903F008033B603B680022082131
:100EC000284800F0C0FD00224FF48071264800F051
:100ED000BAFD4FF400533B6100237B610123BB61EA
:100EE00007F110031946214800F012FC08233B616A
:100EF00001237B610023BB610223FB6107F1100327
:100F00001946184800F004FCC0233B6100237B61B4
:100F10000023BB6107F110031946124800F0F8FBEB
:100F20004FF480733B6111237B610023BB6102237B
:100F3000FB6107F1100319460B4800F0E9FB4FF481
:100F400000733B6100237B610023BB6107F1100349
:100F50001946054800F0DCFB00BF2037BD4680BDC8
:100F60000010024000080140000C01400010014048
:100F700080B400AF72B600BFFEE7000080B485B059
:100F800000AF154B9B69144A43F001039361124B68
:100F90009B6903F00103BB60BB680F4BDB690E4A22
:100FA00043F08053D3610C4BDB6903F080537B60CB
:100FB0007B680A4B5B68FB60FB6823F0E063FB60C7
:100FC000FB6843F00073FB60044AFB68536000BF9A
:100FD0001437BD4680BC704700100240000001403D
:100FE00080B588B000AF786007F1100300221A6066
:100FF0005A609A60DA607B681B68154A934223D175
:10100000144B9B69134A43F008039361114B9B698E
:1010100003F00803FB60FB68C0233B6112237B6184
:101020000323FB6107F1100319460B4800F070FB26
:10103000084BDB69074A43F40013D361054BDB69B6
:1010400003F40013BB60BB6800BF2037BD4680BD02
:101050000054004000100240000C014080B584B0F4
:1010600000AF78607B681B68B3F1804F13D10C4BE5
:10107000DB690B4A43F00103D361094BDB6903F0E1
:101080000103FB60FB68002200211C2000F023FA12
:101090001C2000F03CFA00BF1037BD4680BD00BFE9
:1010A0000010024080B588B000AF786007F11003EF
:1010B00000221A605A609A60DA607B681B68204AD6
:1010C000934239D11F4B9B691E4A43F4804393617D
:1010D0001C4B9B6903F48043FB60FB68194B9B69C5
:1010E000184A43F004039361164B9B6903F0040311
:1010F000BB60BB684FF400733B6102237B61032339
:10110000FB6107F1100319460F4800F001FB4FF493
:1011100080633B6100237B610023BB6107F1100307
:101120001946094800F0F4FA00220021252000F0B9
:10113000D2F9252000F0EBF900BF2037BD4680BD75
:1011400000380140001002400008014080B400AFA8
:10115000FEE780B400AFFEE780B400AFFEE780B4E6
:1011600000AFFEE780B400AFFEE780B400AF00BF81
:10117000BD4680BC704780B400AF00BFBD4680BC98
:10118000704780B400AF00BFBD4680BC704780B5DB
:1011900000AF00F089F800BF80BD000080B500AF4F
:1011A000024802F039F900BF80BD00BF7C0000207A
:1011B00080B500AF024802F097FD00BF80BD00BFC0
:1011C000C400002080B400AF00BFBD4680BC7047A3
:1011D0000C480D490D4A002302E0D458C450043392
:1011E000C4188C42F9D30A4A0A4C002301E0136068
:1011F0000432A242FBD3FFF7E5FF04F043F8FFF708
:1012000021FD7047000000200C000020145300084E
:101210000C00002054010020FEE7000080B500AF64
:10122000084B1B68074A43F010031360032000F0CB
:1012300047F90F2000F008F8FFF7A0FE002318463A
:1012400080BD00BF0020024080B582B000AF786052
:10125000124B1A68124B1B7819464FF47A73B3FB82
:10126000F1F3B2FBF3F3184600F05FF90346002BED
:1012700001D001230EE07B680F2B0AD80022796889
:101280004FF0FF3000F027F9064A7B681360002317
:1012900000E0012318460837BD4680BD000000204D
:1012A000080000200400002080B400AF054B1B782C
:1012B0001A46054B1B681344034A136000BFBD4622
:1012C00080BC7047080000200801002080B400AFF7
:1012D000024B1B681846BD4680BC704708010020C1
:1012E00080B584B000AF7860FFF7F0FFB8607B682E
:1012F000FB60FB68B3F1FF3F05D00A4B1B781A4631
:10130000FB681344FB6000BFFFF7E0FF0246BB68C9
:10131000D31AFA689A42F7D800BF00BF1037BD460B
:1013200080BD00BF0800002080B485B000AF7860A9
:101330007B6803F00703FB600C4BDB68BB60BA689B
:101340004FF6FF031340BB60FB681A02BB681343F0
:1013500043F0BF6343F40033BB60044ABB68D3600F
:1013600000BF1437BD4680BC704700BF00ED00E0F1
:1013700080B400AF044BDB681B0A03F00703184678
:10138000BD4680BC704700BF00ED00E080B483B074
:1013900000AF0346FB7197F90730002B0BDBFB799D
:1013A00003F01F02064997F907305B09012000FA94
:1013B00002F241F8232000BF0C37BD4680BC7047C5
:1013C00000E100E080B483B000AF03463960FB71F8
:1013D00097F90730002B0ADB3B68DAB20C4997F922
:1013E00007301201D2B20B4483F800230AE03B68B5
:1013F000DAB20849FB7903F00F03043B1201D2B2C1
:101400000B441A7600BF0C37BD4680BC704700BF46
:1014100000E100E000ED00E080B489B000AFF860CA
:10142000B9607A60FB6803F00703FB61FB69C3F1F5
:101430000703042B28BF0423BB61FB690433062B7D
:1014400002D9FB69033B00E000237B614FF0FF32D0
:10145000BB6902FA03F3DA43BB681A407B699A401E
:101460004FF0FF317B6901FA03F3D9437B680B40EE
:10147000134318462437BD4680BC704780B582B000
:1014800000AF78607B68013BB3F1807F01D301231B
:101490000FE00A4A7B68013B53600F214FF0FF3099
:1014A000FFF790FF054B00229A60044B07221A6059
:1014B000002318460837BD4680BD00BF10E000E09D
:1014C00080B582B000AF78607868FFF72DFF00BF6D
:1014D0000837BD4680BD80B586B000AF0346B96011
:1014E0007A60FB7300237B61FFF742FF78617A68C3
:1014F000B9687869FFF790FF024697F90F301146F7
:101500001846FFF75FFF00BF1837BD4680BD80B5A6
:1015100082B000AF0346FB7197F907301846FFF71A
:1015200035FF00BF0837BD4680BD80B582B000AF33
:1015300078607868FFF7A2FF034618460837BD4673
:1015400080BD80B485B000AF78600023FB737B68FA
:1015500093F82130022B08D07B6804229A637B68C1
:10156000002283F82020012320E07B681B681A6892
:101570007B681B6822F00E021A607B681B681A6881
:101580007B681B6822F001021A607B681A6C7B681A
:10159000DB6B012101FA02F25A607B68012283F8B9
:1015A00021207B68002283F82020FB7B184614371B
:1015B000BD4680BC7047000080B584B000AF786045
:1015C0000023FB737B6893F82130022B05D07B68E6
:1015D00004229A630123FB7351E07B681B681A683D
:1015E0007B681B6822F00E021A607B681B681A6811
:1015F0007B681B6822F001021A607B681B68224A24
:10160000934229D07B681B68204A934222D07B6892
:101610001B681F4A93421AD07B681B681D4A93427D
:1016200012D07B681B681C4A93420AD07B681B68F7
:101630001A4A934202D14FF480130EE04FF08073A8
:101640000BE04FF4803308E04FF4805305E04FF493
:10165000807302E0102300E00123114A53607B688D
:10166000012283F821207B68002283F820207B68F8
:101670005B6B002B03D07B685B6B78689847FB7BC8
:1016800018461037BD4680BD080002401C000240CD
:101690003000024044000240580002406C0002400A
:1016A0000000024080B483B000AF0023FB710D4BFB
:1016B0001B6903F08003002B0DD00A4B0A4A5A60C5
:1016C000084B0A4A5A60074B1B6903F08003002B42
:1016D00001D00123FB71FB7918460C37BD4680BC55
:1016E000704700BF0020024023016745AB89EFCD62
:1016F00080B400AF054B1B69044A43F080031361BB
:1017000000231846BD4680BC704700BF0020024041
:1017100080B48BB000AF7860396000237B62002317
:101720003B6269E101227B6A02FA03F3FB613B68D9
:101730001B68FA691340BB61BA69FB699A4240F0C1
:1017400058813B685B689A4A93425ED0984A9342BC
:1017500075D8984A934258D0964A93426FD8964A81
:10176000934252D0944A934269D8944A93424CD0BF
:10177000924A934263D8924A934246D0904A934207
:101780005DD8122B2AD8122B59D801A252F823F077
:101790000B180008E5170008F717000839180008AB
:1017A0003F1800083F1800083F1800083F180008BD
:1017B0003F1800083F1800083F1800083F180008AD
:1017C0003F1800083F1800083F1800083F1800089D
:1017D0003F180008ED17000801180008794A9342E5
:1017E00013D02CE03B68DB683B6229E03B68DB6898
:1017F00004333B6224E03B68DB6808333B621FE054
:101800003B68DB680C333B621AE03B689B68002B4B
:1018100002D104233B6213E03B689B68012B05D196
:1018200008233B627B68FA691A6109E008233B627E
:101830007B68FA695A6103E000233B6200E000BF65
:10184000BB69FF2B01D87B6801E07B6804337B61B7
:10185000BB69FF2B02D87B6A9B0002E07B6A083BD6
:101860009B003B617B691A680F213B6901FA03F316
:10187000DB431A40396A3B6901FA03F31A437B6977
:101880001A603B685B6803F08053002B00F0B18066
:101890004D4B9B694C4A43F0010393614A4B9B6952
:1018A00003F00103BB60BB68484A7B6A9B080233B4
:1018B00052F82330FB607B6A03F003039B000F2286
:1018C00002FA03F3DB43FA681340FB607B68404A8B
:1018D000934213D07B683F4A93420DD07B683E4AC7
:1018E000934207D07B683D4A934201D1032306E02F
:1018F000042304E0022302E0012300E000237A6ACB
:1019000002F0030292009340FA681343FB602F49F0
:101910007B6A9B080233FA6841F823203B685B68C6
:1019200003F48033002B06D02D4B1A682C49BB6979
:1019300013430B6006E02A4B1A68BB69DB43284956
:1019400013400B603B685B6803F40033002B06D048
:10195000234B5A682249BB6913434B6006E0204B76
:101960005A68BB69DB431E4913404B603B685B68A8
:1019700003F48013002B06D0194B9A681849BB69F1
:1019800013438B6006E0164B9A68BB69DB4314492E
:1019900013408B603B685B6803F40013002B21D07D
:1019A0000F4BDA680E49BB691343CB6021E000BFDF
:1019B0000000321000003110000022100000211041
:1019C0000000121000001110001002400000014041
:1019D00000080140000C01400010014000140140CB
:1019E000000401400B4BDA68BB69DB430949134033
:1019F000CB607B6A01337B623B681A687B6A22FAA0
:101A000003F3002B7FF48EAE00BF00BF2C37BD4622
:101A100080BC70470004014080B485B000AF78609E
:101A20000B467B807B689A687B881340002B02D032
:101A30000123FB7301E00023FB73FB7B1846143783
:101A4000BD4680BC704780B483B000AF78600B4661
:101A50007B8013467B707B78002B03D07A887B6871
:101A60001A6103E07B881A047B681A6100BF0C3797
:101A7000BD4680BC704780B485B000AF78600B462F
:101A80007B807B68DB68FB607A88FB6813401A0404
:101A9000FB68D9437B880B401A437B681A6100BFFF
:101AA0001437BD4680BC704780B584B000AF786005
:101AB0007B68002B01D101232BE17B6893F83D303B
:101AC000DBB2002B06D17B68002283F83C207868CB
:101AD000FFF786FA7B68242283F83D207B681B6829
:101AE0001A687B681B6822F001021A607B681B6819
:101AF0001A687B681B6842F400421A607B681B68A6
:101B00001A687B681B6822F400421A6001F06EFBC1
:101B1000F8607B685B68814A934207D8FB68804A1B
:101B2000934294BF01230023DBB206E0FB687D4AA9
:101B3000934294BF01230023DBB2002B01D0012389
:101B4000E7E0FB68784AA2FB03239B0CBB607B6841
:101B50001B685B6823F03F017B681B68BA680A4317
:101B60005A607B681B681B6A23F03F017B685B68D7
:101B70006A4A934202D8BB68013309E0BB684FF45C
:101B8000967202FB03F3694AA2FB03239B0901330C
:101B90007A6812680B4313627B681B68DB6923F465
:101BA0004F4222F0FF027B685B685C498B4219D888
:101BB000FB68591E7B685B685B00B1FBF3F3591C43
:101BC00040F6FC730B40002B0AD0FB68591E7B6863
:101BD0005B685B00B1FBF3F30133C3F30B0351E02C
:101BE00004234FE07B689B68002B11D1FB68581ED3
:101BF0007B6859680B465B000B44B0FBF3F3013381
:101C0000C3F30B03002B0CBF01230023DBB212E054
:101C1000FB68581E7B6859680B469B000B44990073
:101C20000B44B0FBF3F30133C3F30B03002B0CBFE6
:101C300001230023DBB2002B01D0012322E07B68CB
:101C40009B68002B0ED1FB68581E7B6859680B46B9
:101C50005B000B44B0FBF3F30133C3F30B0343F41A
:101C600000430FE0FB68581E7B6859680B469B00D9
:101C70000B4499000B44B0FBF3F30133C3F30B03A4
:101C800043F44043796809681343CB617B681B6860
:101C90001B6823F0C0017B68DA697B681B6A1A4302
:101CA0007B681B680A431A607B681B689B6823F487
:101CB000034323F0FF037A6811697A68D2681143FD
:101CC0007A6812680B4393607B681B68DB6823F0BB
:101CD000FF017B685A697B689B691A437B681B68B4
:101CE0000A43DA607B681B681A687B681B6842F0ED
:101CF00001021A607B6800221A647B68202283F844
:101D00003D207B6800221A637B68002283F83E2016
:101D1000002318461037BD4680BD00BFA0860100D5
:101D20007F841E00FF083D0083DE1B43D34D6210FD
:101D300080B588B002AFF8607A601A460B467B81A6
:101D400013463B81FFF7C2FA7861FB6893F83D3098
:101D5000DBB2202B40F0E0807B6900931923012245
:101D60007049F86800F092FC0346002B01D0022372
:101D7000D3E0FB6893F83C30012B01D10223CCE087
:101D8000FB68012283F83C20FB681B681B6803F09A
:101D90000103012B07D0FB681B681A68FB681B68EE
:101DA00042F001021A60FB681B681A68FB681B6836
:101DB00022F400621A60FB68212283F83D20FB6850
:101DC000102283F83E20FB6800221A64FB687A68C0
:101DD0005A62FB683A895A85FB685B8D9AB2FB6848
:101DE0001A85FB68504ADA6279897B693A6AF86831
:101DF00000F0FCFA0346002B01D001238DE0002304
:101E00003B61FB681B685B693B61FB681B689B6906
:101E10003B613B6966E07A69396AF86800F00CFD5D
:101E20000346002B0DD0FB681B6C042B07D1FB680D
:101E30001B681A68FB681B6842F400721A60012371
:101E40006BE0FB685B6A1A78FB681B681A61FB68C9
:101E50005B6A5A1CFB685A62FB685B8D9BB2013B54
:101E60009AB2FB685A85FB681B8D013B9AB2FB68EE
:101E70001A85FB681B685B6903F00403042B1BD104
:101E8000FB681B8D002B17D0FB685B6A1A78FB6818
:101E90001B681A61FB685B6A5A1CFB685A62FB6824
:101EA0005B8D9BB2013B9AB2FB685A85FB681B8D28
:101EB000013B9AB2FB681A857A69396AF86800F0C2
:101EC000FCFC0346002B0DD0FB681B6C042B07D1D8
:101ED000FB681B681A68FB681B6842F400721A6092
:101EE00001231AE0FB681B8D002B94D1FB681B6853
:101EF0001A68FB681B6842F400721A60FB682022B3
:101F000083F83D20FB68002283F83E20FB68002216
:101F100083F83C20002300E0022318461837BD4612
:101F200080BD00BF020010000000FFFF80B58CB034
:101F300002AFF8607A601A460B467B8113463B81FC
:101F400000233B62FFF7C2F97862FB6893F83D30EB
:101F5000DBB2202B40F03F827B6A009319230122E1
:101F60007F49F86800F092FB0346002B01D0022362
:101F700032E2FB6893F83C30012B01D102232BE2C3
:101F8000FB68012283F83C20FB681B681B6803F098
:101F90000103012B07D0FB681B681A68FB681B68EC
:101FA00042F001021A60FB681B681A68FB681B6834
:101FB00022F400621A60FB68222283F83D20FB684D
:101FC000102283F83E20FB6800221A64FB687A68BE
:101FD0005A62FB683A895A85FB685B8D9AB2FB6846
:101FE0001A85FB685F4ADA6279897B6A3A6BF8681E
:101FF00000F07EFA0346002B01D00123ECE1FB68E0
:102000001B8D002B13D10023FB61FB681B685B69F0
:10201000FB61FB681B689B69FB61FB69FB681B68D4
:102020001A68FB681B6842F400721A60C0E1FB6822
:102030001B8D012B1ED1FB681B681A68FB681B688F
:1020400022F480621A6072B600BF0023BB61FB6895
:102050001B685B69BB61FB681B689B69BB61BB69F3
:10206000FB681B681A68FB681B6842F400721A6000
:1020700062B635E0FB681B8D022B1ED1FB681B6826
:102080001A68FB681B6842F400621A6072B600BFEF
:1020900000237B61FB681B685B697B61FB681B68D5
:1020A0009B697B617B69FB681B681A68FB681B681E
:1020B00022F480621A6062B612E0FB681B681A683C
:1020C000FB681B6842F480621A6000233B61FB6876
:1020D0001B685B693B61FB681B689B693B613B69F3
:1020E00066E1FB681B8D032B00F21F81FB681B8DD3
:1020F000012B23D17A6A396BF86800F01FFC034684
:10210000002B01D0012367E1FB681B681A69FB689B
:102110005B6AD2B21A70FB685B6A5A1CFB685A622F
:10212000FB681B8D013B9AB2FB681A85FB685B8DCF
:102130009BB2013B9AB2FB685A8539E1FB681B8D63
:10214000022B52D17B6A00933B6B00220649F86850
:1021500000F09CFA0346002B08D001233CE100BFAD
:10216000020010000000FFFF0400010072B600BF73
:10217000FB681B681A68FB681B6842F400721A60EF
:10218000FB681B681A69FB685B6AD2B21A70FB684D
:102190005B6A5A1CFB685A62FB681B8D013B9AB252
:1021A000FB681A85FB685B8D9BB2013B9AB2FB68AA
:1021B0005A8562B600BFFB681B681A69FB685B6AD8
:1021C000D2B21A70FB685B6A5A1CFB685A62FB68E1
:1021D0001B8D013B9AB2FB681A85FB685B8D9BB235
:1021E000013B9AB2FB685A85E2E07B6A00933B6B45
:1021F00000227B49F86800F049FA0346002B01D021
:102200000123E9E0FB681B681A68FB681B6822F47D
:1022100080621A6072B600BFFB681B681A69FB68AF
:102220005B6AD2B21A70FB685B6A5A1CFB685A621E
:10223000FB681B8D013B9AB2FB681A85FB685B8DBE
:102240009BB2013B9AB2FB685A85664B1B68DB0860
:10225000654AA2FB03231A0A13469B001344DA00C3
:10226000D31A3B623B6A013B3B623B6A002B18D1AD
:10227000FB6800221A63FB68202283F83D20FB687C
:10228000002283F83E20FB681B6C43F02002FB68B1
:102290001A6462B600BFFB68002283F83C20012369
:1022A0009AE0FB681B685B6903F00403042BD9D137
:1022B000FB681B681A68FB681B6842F400721A60AE
:1022C000FB681B681A69FB685B6AD2B21A70FB680C
:1022D0005B6A5A1CFB685A62FB681B8D013B9AB211
:1022E000FB681A85FB685B8D9BB2013B9AB2FB6869
:1022F0005A8562B600BFFB681B681A69FB685B6A97
:10230000D2B21A70FB685B6A5A1CFB685A62FB689F
:102310001B8D013B9AB2FB681A85FB685B8D9BB2F3
:10232000013B9AB2FB685A8542E07A6A396BF868D9
:1023300000F004FB0346002B01D001234CE0FB68B6
:102340001B681A69FB685B6AD2B21A70FB685B6A29
:102350005A1CFB685A62FB681B8D013B9AB2FB68F2
:102360001A85FB685B8D9BB2013B9AB2FB685A856C
:10237000FB681B685B6903F00403042B18D1FB683E
:102380001B681A69FB685B6AD2B21A70FB685B6AE9
:102390005A1CFB685A62FB681B8D013B9AB2FB68B2
:1023A0001A85FB685B8D9BB2013B9AB2FB685A852C
:1023B000FB681B8D002B7FF494AEFB68202283F812
:1023C0003D20FB68002283F83E20FB68002283F852
:1023D0003C20002300E0022318462837BD4680BD7C
:1023E000040001000000002089B5F81480B588B011
:1023F00002AFF8607A603B600B467B81FB68DB6A6A
:102400007B617B69082B06D07B69012B03D07B693C
:1024100013F5803F08D1FB681B681A68FB681B68CE
:1024200042F480721A600BE0FB681B6B122B07D121
:10243000FB681B681A68FB681B6842F480721A60AC
:102440003B6800937B6800224FF00111F86800F0B0
:102450001DF90346002B0DD0FB681B681B6803F4B5
:102460008073B3F5807F03D1FB684FF400721A6468
:10247000032335E0FB681B69B3F5804F08D17B89E6
:10248000DBB21A46FB681B6802F0FE021A611BE011
:102490007B89DB11DBB203F00603DBB263F00F03D1
:1024A000DAB2FB681B681A613B687A680E49F86803
:1024B00000F043F90346002B01D0012310E07B8993
:1024C000DAB2FB681B681A613B687A680749F868EA
:1024D00000F033F90346002B01D0012300E0002374
:1024E00018461837BD4680BD0800010002000100F3
:1024F00080B588B002AFF8607A603B600B467B81A4
:10250000FB68DB6A7B61FB681B681A68FB681B68F9
:1025100042F480621A607B69082B06D07B69012B2C
:1025200003D07B6913F5803F08D1FB681B681A68EC
:10253000FB681B6842F480721A600BE0FB681B6B3F
:10254000112B07D1FB681B681A68FB681B6842F4F3
:1025500080721A603B6800937B6800224FF0011183
:10256000F86800F093F80346002B0DD0FB681B6859
:102570001B6803F48073B3F5807F03D1FB684FF4CD
:1025800000721A64032379E0FB681B69B3F5804F7E
:1025900008D17B89DBB243F00103DAB2FB681B6828
:1025A0001A615FE07B89DB11DBB203F00603DBB26B
:1025B00063F00F03DAB2FB681B681A613B687A6844
:1025C0003049F86800F0B9F80346002B01D0012328
:1025D00054E07B89DAB2FB681B681A613B687A6851
:1025E0002949F86800F0A9F80346002B01D001231F
:1025F00044E000233B61FB681B685B693B61FB684F
:102600001B689B693B613B69FB681B681A68FB6838
:102610001B6842F480721A603B6800937B6800225A
:102620004FF00111F86800F031F80346002B0DD08F
:10263000FB681B681B6803F48073B3F5807F03D1CC
:10264000FB684FF400721A64032317E07B89DB11E7
:10265000DBB203F00603DBB263F00E03DAB2FB6811
:102660001B681A613B687A680749F86800F065F8EA
:102670000346002B01D0012300E000231846183741
:10268000BD4680BD080001000200010080B584B095
:1026900000AFF860B9603B601346FB7125E03B6812
:1026A000B3F1FF3F21D0FEF711FE0246BB69D31AFA
:1026B0003A689A4202D33B68002B16D1FB6800228D
:1026C0001A63FB68202283F83D20FB68002283F810
:1026D0003E20FB681B6C43F02002FB681A64FB6819
:1026E000002283F83C20012323E0BB681B0CDBB2F3
:1026F000012B0DD1FB681B685B69DA43BB68134093
:102700009BB2002B0CBF01230023DBB21A460CE066
:10271000FB681B689B69DA43BB6813409BB2002BC4
:102720000CBF01230023DBB21A46FB799A42B6D0D4
:10273000002318461037BD4680BD80B584B000AF79
:10274000F860B9607A603B6051E0FB681B685B69C8
:1027500003F48063B3F5806F23D1FB681B681A68AC
:10276000FB681B6842F400721A60FB681B686FF418
:1027700080625A61FB6800221A63FB68202283F89A
:102780003D20FB68002283F83E20FB681B6C43F071
:102790000402FB681A64FB68002283F83C200123D2
:1027A00046E07B68B3F1FF3F21D0FEF78FFD024684
:1027B0003B68D31A7A689A4202D37B68002B16D101
:1027C000FB6800221A63FB68202283F83D20FB6827
:1027D000002283F83E20FB681B6C43F02002FB685C
:1027E0001A64FB68002283F83C20012320E0BB68C8
:1027F0001B0CDBB2012B0CD1FB681B685B69DA4355
:10280000BB6813409BB2002B14BF01230023DBB233
:102810000BE0FB681B689B69DA43BB6813409BB203
:10282000002B14BF01230023DBB2002B8DD100232A
:1028300018461037BD4680BD80B584B000AFF86043
:10284000B9607A602DE0F86800F0CEF80346002BFE
:1028500001D001232DE0BB68B3F1FF3F21D0FEF78B
:1028600035FD02467B68D31ABA689A4202D3BB6828
:10287000002B16D1FB6800221A63FB68202283F824
:102880003D20FB68002283F83E20FB681B6C43F070
:102890002002FB681A64FB68002283F83C200123B5
:1028A00007E0FB681B685B6903F08003802BCAD1DB
:1028B000002318461037BD4680BD80B584B000AFF8
:1028C000F860B9607A602DE0F86800F08DF8034692
:1028D000002B01D001232DE0BB68B3F1FF3F21D0D5
:1028E000FEF7F4FC02467B68D31ABA689A4202D318
:1028F000BB68002B16D1FB6800221A63FB682022FC
:1029000083F83D20FB68002283F83E20FB681B6CA7
:1029100043F02002FB681A64FB68002283F83C2025
:10292000012307E0FB681B685B6903F00403042BC9
:10293000CAD1002318461037BD4680BD80B584B08B
:1029400000AFF860B9607A6042E0FB681B685B69C1
:1029500003F01003102B19D1FB681B686FF01002F5
:102960005A61FB6800221A63FB68202283F83D202D
:10297000FB68002283F83E20FB681A6CFB681A642F
:10298000FB68002283F83C20012329E0FEF79EFC2F
:1029900002467B68D31ABA689A4202D3BB68002BFE
:1029A00016D1FB6800221A63FB68202283F83D20C1
:1029B000FB68002283F83E20FB681B6C43F020027A
:1029C000FB681A64FB68002283F83C20012307E0BF
:1029D000FB681B685B6903F04003402BB5D1002303
:1029E00018461037BD4680BD80B483B000AF786014
:1029F0007B681B685B6903F48063B3F5806F1BD150
:102A00007B681B686FF480625A617B6800221A63DE
:102A10007B68202283F83D207B68002283F83E20DB
:102A20007B681B6C43F004027B681A647B6800229D
:102A300083F83C20012300E0002318460C37BD46F4
:102A400080BC704780B586B000AF78607B68002B93
:102A500001D1012372E27B681B6803F00103002BA4
:102A600000F08780924B5B6803F00C03042B0CD0C2
:102A70008F4B5B6803F00C03082B12D18C4B5B6807
:102A800003F48033B3F5803F0BD1894B1B6803F40B
:102A90000033002B6CD07B685B68002B68D101236E
:102AA0004CE27B685B68B3F5803F06D1804B1B68C6
:102AB0007F4A43F4803313602EE07B685B68002B11
:102AC0000CD17B4B1B687A4A23F480331360784B1C
:102AD0001B68774A23F4802313601DE07B685B68E2
:102AE000B3F5A02F0CD1724B1B68714A43F48023BD
:102AF00013606F4B1B686E4A43F4803313600BE026
:102B00006B4B1B686A4A23F480331360684B1B6865
:102B1000674A23F4802313607B685B68002B13D023
:102B2000FEF7D4FB386108E0FEF7D0FB02463B69B4
:102B3000D31A642B01D9032300E25D4B1B6803F415
:102B40000033002BF0D014E0FEF7C0FB386108E042
:102B5000FEF7BCFB02463B69D31A642B01D9032361
:102B6000ECE1534B1B6803F40033002BF0D100E081
:102B700000BF7B681B6803F00203002B63D04C4B43
:102B80005B6803F00C03002B0BD0494B5B6803F030
:102B90000C03082B1CD1464B5B6803F48033002BDD
:102BA00016D1434B1B6803F00203002B05D07B6852
:102BB0001B69012B01D00123C0E13D4B1B6823F0B1
:102BC000F8027B685B69DB00394913430B603AE02C
:102BD0007B681B69002B20D0364B01221A60FEF760
:102BE00075FB386108E0FEF771FB02463B69D31ABA
:102BF000022B01D90323A1E12D4B1B6803F0020333
:102C0000002BF0D02A4B1B6823F0F8027B685B692D
:102C1000DB00274913430B6015E0264B00221A60A6
:102C2000FEF754FB386108E0FEF750FB02463B69B3
:102C3000D31A022B01D9032380E11D4B1B6803F03B
:102C40000203002BF0D17B681B6803F00803002B04
:102C50003AD07B689B69002B19D0174B01221A6070
:102C6000FEF734FB386108E0FEF730FB02463B69B3
:102C7000D31A022B01D9032360E10D4B5B6A03F0E9
:102C80000203002BF0D0012000F0D8FA1CE00A4B20
:102C900000221A60FEF71AFB38610FE0FEF716FB00
:102CA00002463B69D31A022B08D9032346E100BF31
:102CB000001002400000424280044242924B5B6A94
:102CC00003F00203002BE9D17B681B6803F00403C7
:102CD000002B00F0A6800023FB758B4BDB6903F013
:102CE0008053002B0DD1884BDB69874A43F080531A
:102CF000D361854BDB6903F08053BB60BB68012364
:102D0000FB75824B1B6803F48073002B18D17F4B3B
:102D10001B687E4A43F480731360FEF7D7FA38616C
:102D200008E0FEF7D3FA02463B69D31A642B01D9B7
:102D3000032303E1754B1B6803F48073002BF0D071
:102D40007B68DB68012B06D16F4B1B6A6E4A43F030
:102D5000010313622DE07B68DB68002B0CD16A4B0A
:102D60001B6A694A23F001031362674B1B6A664AB8
:102D700023F0040313621CE07B68DB68052B0CD195
:102D8000614B1B6A604A43F0040313625E4B1B6A8B
:102D90005D4A43F0010313620BE05B4B1B6A5A4A26
:102DA00023F001031362584B1B6A574A23F00403B4
:102DB00013627B68DB68002B15D0FEF787FA386159
:102DC0000AE0FEF783FA02463B69D31A41F28832E1
:102DD000934201D90323B1E04B4B1B6A03F002037A
:102DE000002BEED014E0FEF771FA38610AE0FEF72E
:102DF0006DFA02463B69D31A41F28832934201D9F7
:102E000003239BE0404B1B6A03F00203002BEED12F
:102E1000FB7D012B05D13C4BDB693B4A23F0805302
:102E2000D3617B68DB69002B00F08780364B5B68E1
:102E300003F00C03082B61D07B68DB69022B46D1C1
:102E4000334B00221A60FEF741FA386108E0FEF7C2
:102E50003DFA02463B69D31A022B01D903236DE0E8
:102E6000294B1B6803F00073002BF0D17B681B6AB1
:102E7000B3F5803F08D1244B5B6823F400327B68B4
:102E80009B68214913434B601F4B5B6823F474120A
:102E90007B68196A7B685B6A0B431B4913434B6071
:102EA0001B4B01221A60FEF711FA386108E0FEF7A9
:102EB0000DFA02463B69D31A022B01D903233DE0E8
:102EC000114B1B6803F00073002BF0D035E0104B62
:102ED00000221A60FEF7FAF9386108E0FEF7F6F909
:102EE00002463B69D31A022B01D9032326E0064B85
:102EF0001B6803F00073002BF0D11EE07B68DB69D8
:102F0000012B07D1012319E000100240007000409E
:102F1000600042420B4B5B68FB60FB6803F480324D
:102F20007B681B6A9A4206D1FB6803F470127B68C7
:102F30005B6A9A4201D0012300E00023184618374B
:102F4000BD4680BD0010024080B584B000AF7860FF
:102F500039607B68002B01D10123D0E06A4B1B68EC
:102F600003F007033A689A4210D9674B1B6823F0B5
:102F7000070265493B6813430B60634B1B6803F012
:102F800007033A689A4201D00123B8E07B681B68C6
:102F900003F00203002B20D07B681B6803F00403BE
:102FA000002B05D0594B5B68584A43F4E0635360EB
:102FB0007B681B6803F00803002B05D0534B5B684C
:102FC000524A43F460535360504B5B6823F0F00265
:102FD0007B689B684D4913434B607B681B6803F01B
:102FE0000103002B40D07B685B68012B07D1474B66
:102FF0001B6803F40033002B15D101237FE07B68AD
:103000005B68022B07D1414B1B6803F00073002B58
:1030100009D1012373E03D4B1B6803F00203002B31
:1030200001D101236BE0394B5B6823F003027B681D
:103030005B68364913434B60FEF748F9F8600AE0D5
:10304000FEF744F90246FB68D31A41F288329342F4
:1030500001D9032353E02D4B5B6803F00C027B681E
:103060005B689B009A42EBD1274B1B6803F0070378
:103070003A689A4210D2244B1B6823F00702224977
:103080003B6813430B60204B1B6803F007033A684F
:103090009A4201D0012332E07B681B6803F00403ED
:1030A000002B08D0194B5B6823F4E0627B68DB6877
:1030B000164913434B607B681B6803F00803002B21
:1030C00009D0124B5B6823F460527B681B69DB00FC
:1030D0000E4913434B6000F021F802460B4B5B682E
:1030E0001B0903F00F030A49CB5C22FA03F3094AD8
:1030F0001360094B1B681846FEF7A6F80023184614
:103100001037BD4680BD00BF0020024000100240C5
:10311000F4520008000000200400002090B48AB09F
:1031200000AF294B3C1D0FCB84E80F0040F2012378
:103130003B800023FB610023BB6100237B620023F3
:103140007B6100233B62214B5B68FB61FB6903F001
:103150000C03042B02D0082B03D02BE01C4B3B624A
:103160002BE0FB699B0C03F00F0328333B4413F85F
:10317000243C7B61FB6903F48033002B12D0134B9A
:103180005B685B0C03F0010328333B4413F8283CD5
:10319000BB617B690E4A03FB02F2BB69B2FBF3F32E
:1031A0007B6204E07B690B4A02FB03F37B627B6A70
:1031B0003B6202E0064B3B6200BF3B6A1846283781
:1031C000BD4690BC704700BFE452000800100240AA
:1031D00000127A0000093D0080B400AF024B1B686A
:1031E0001846BD4680BC70470000002080B500AF87
:1031F000FFF7F2FF0246054B5B681B0A03F007036B
:103200000349CB5C22FA03F3184680BD001002404C
:103210000453000880B500AFFFF7DEFF0246054B00
:103220005B68DB0A03F007030349CB5C22FA03F374
:10323000184680BD001002400453000880B485B0D9
:1032400000AF78600A4B1B680A4AA2FB03235B0AA3
:103250007A6802FB03F3FB6000BFFB685A1EFA604A
:10326000002BF9D100BF00BF1437BD4680BC7047AA
:1032700000000020D34D621080B582B000AF7860AE
:103280007B68002B01D1012341E07B6893F83D303E
:10329000DBB2002B06D17B68002283F83C207868E3
:1032A000FDF7DCFE7B68022283F83D207B681A680C
:1032B0007B6804331946104600F09EFA7B680122B1
:1032C00083F846207B68012283F83E207B68012238
:1032D00083F83F207B68012283F840207B6801222D
:1032E00083F841207B68012283F842207B68012219
:1032F00083F843207B68012283F844207B68012205
:1033000083F845207B68012283F83D20002318467E
:103310000837BD4680BD000080B485B000AF78603E
:103320007B6893F83D30DBB2012B01D001233AE0FA
:103330007B68022283F83D207B681B68DA687B6823
:103340001B6842F00102DA607B681B68184A9342EE
:103350000ED07B681B68B3F1804F09D07B681B6877
:10336000144A934204D07B681B68134A934211D1DC
:103370007B681B689B6803F00703FB60FB68062BF8
:1033800010D07B681B681A687B681B6842F00102DA
:103390001A6007E07B681B681A687B681B6842F04C
:1033A00001021A60002318461437BD4680BC7047DE
:1033B000002C0140000400400008004080B483B0AD
:1033C00000AF78607B681B68DA687B681B6822F056
:1033D0000102DA607B681B681A6A41F2111313401C
:1033E000002B0FD17B681B681A6A40F244431340DC
:1033F000002B07D17B681B681A687B681B6822F06A
:1034000001021A607B68012283F83D2000231846E0
:103410000C37BD4680BC704780B582B000AF786085
:103420007B681B681B6903F00203022B22D17B68B7
:103430001B68DB6803F00203022B1BD17B681B684F
:103440006FF002021A617B6801221A777B681B68A1
:103450009B6903F00303002B03D0786800F0B1F9F7
:1034600005E0786800F0A4F9786800F0B3F97B68AB
:1034700000221A777B681B681B6903F00403042B86
:1034800022D17B681B68DB6803F00403042B1BD18B
:103490007B681B686FF004021A617B6802221A774E
:1034A0007B681B689B6903F44073002B03D078682A
:1034B00000F087F905E0786800F07AF9786800F0A4
:1034C00089F97B6800221A777B681B681B6903F007
:1034D0000803082B22D17B681B68DB6803F0080314
:1034E000082B1BD17B681B686FF008021A617B6890
:1034F00004221A777B681B68DB6903F00303002B47
:1035000003D0786800F05DF905E0786800F050F9C4
:10351000786800F05FF97B6800221A777B681B6887
:103520001B6903F01003102B22D17B681B68DB683A
:1035300003F01003102B1BD17B681B686FF0100287
:103540001A617B6808221A777B681B68DB6903F4C1
:103550004073002B03D0786800F033F905E07868F9
:1035600000F026F9786800F035F97B6800221A77B8
:103570007B681B681B6903F00103012B0ED17B687C
:103580001B68DB6803F00103012B07D17B681B6814
:103590006FF001021A61786801F02AF97B681B68F4
:1035A0001B6903F08003802B0ED17B681B68DB68EE
:1035B00003F08003802B07D17B681B686FF08002CB
:1035C0001A61786800F077FA7B681B681B6903F062
:1035D0004003402B0ED17B681B68DB6803F040037F
:1035E000402B07D17B681B686FF040021A61786836
:1035F00000F0F9F87B681B681B6903F02003202B9F
:103600000ED17B681B68DB6803F02003202B07D1F9
:103610007B681B686FF020021A61786800F042FA3C
:1036200000BF0837BD4680BD80B584B000AF78606C
:1036300039607B6893F83C30012B01D10223B3E061
:103640007B68012283F83C207B68022283F83D20BE
:103650007B681B689B68FB60FB6823F07703FB605B
:10366000FB6823F47F43FB607B681B68FA689A6001
:103670003B681B68B3F5005F3ED0B3F5005F00F216
:103680008780B3F5805F00F08580B3F5805F7FD8D9
:10369000702B1AD0702B7BD8602B50D0602B77D832
:1036A000502B3CD0502B73D8402B58D0402B6FD888
:1036B000302B64D0302B6BD8202B60D0202B67D8D8
:1036C000002B5CD0102B5AD062E07B6818683B68F6
:1036D00099683B685A683B68DB6800F066F97B686C
:1036E0001B689B68FB60FB6843F07703FB607B68AB
:1036F0001B68FA689A604EE07B6818683B689968B6
:103700003B685A683B68DB6800F04FF97B681B68D0
:103710009A687B681B6842F480429A603BE07B6851
:1037200018683B6859683B68DB681A4600F0C6F8C1
:103730007B681B685021184600F01DF92BE07B6860
:1037400018683B6859683B68DB681A4600F0E4F883
:103750007B681B686021184600F00DF91BE07B6850
:1037600018683B6859683B68DB681A4600F0A6F8A1
:103770007B681B684021184600F0FDF80BE07B6871
:103780001A683B681B681946104600F0F4F802E01E
:1037900000BF00E000BF7B68012283F83D207B680A
:1037A000002283F83C20002318461037BD4680BD18
:1037B00080B483B000AF786000BF0C37BD4680BCDA
:1037C000704780B483B000AF786000BF0C37BD464F
:1037D00080BC704780B483B000AF786000BF0C3706
:1037E000BD4680BC704780B483B000AF786000BF36
:1037F0000C37BD4680BC704780B485B000AF7860A0
:1038000039607B681B68FB607B68294A93420BD058
:103810007B68B3F1804F07D07B68264A934203D080
:103820007B68254A934208D1FB6823F07003FB6054
:103830003B685B68FA681343FB607B681C4A9342F1
:103840000BD07B68B3F1804F07D07B68194A934255
:1038500003D07B68184A934208D1FB6823F4407375
:10386000FB603B68DB68FA681343FB60FB6823F08E
:1038700080023B685B691343FB607B68FA681A60EF
:103880003B689A687B68DA623B681A687B689A6270
:103890007B68074A934203D13B681A697B681A63C5
:1038A0007B6801225A6100BF1437BD4680BC704757
:1038B000002C0140000400400008004080B487B0A4
:1038C00000AFF860B9607A60FB681B6A7B61FB68D7
:1038D0001B6A23F00102FB681A62FB689B693B616B
:1038E0003B6923F0F0033B617B681B013A6913439A
:1038F0003B617B6923F00A037B617A69BB681343F0
:103900007B61FB683A699A61FB687A691A6200BF59
:103910001C37BD4680BC704780B487B000AFF860EC
:10392000B9607A60FB681B6A23F01002FB681A62B8
:10393000FB689B697B61FB681B6A3B617B6923F4C5
:1039400070437B617B681B037A6913437B613B692E
:1039500023F0A0033B61BB681B013A6913433B6141
:10396000FB687A699A61FB683A691A6200BF1C3782
:10397000BD4680BC704780B485B000AF78603960C8
:103980007B689B68FB60FB6823F07003FB603A6810
:10399000FB68134343F00703FB607B68FA689A6097
:1039A00000BF1437BD4680BC704780B487B000AFFD
:1039B000F860B9607A603B60FB689B687B617B69FB
:1039C00023F47F437B613B681A027B681A43BB6820
:1039D00013437A6913437B61FB687A699A6000BF7D
:1039E0001C37BD4680BC704780B485B000AF78609E
:1039F00039607B6893F83C30012B01D1022346E00B
:103A00007B68012283F83C207B68022283F83D20FA
:103A10007B681B685B68FB607B681B689B68BB609E
:103A2000FB6823F07003FB603B681B68FA68134374
:103A3000FB607B681B68FA685A607B681B68164AE3
:103A400093420ED07B681B68B3F1804F09D07B682E
:103A50001B68124A934204D07B681B68104A934249
:103A60000CD1BB6823F08003BB603B685B68BA681D
:103A70001343BB607B681B68BA689A607B6801224D
:103A800083F83D207B68002283F83C200023184601
:103A90001437BD4680BC7047002C01400004004034
:103AA0000008004080B483B000AF786000BF0C37DE
:103AB000BD4680BC704780B483B000AF786000BF63
:103AC0000C37BD4680BC704780B582B000AF7860CF
:103AD0007B68002B01D101233FE07B6893F83D30E8
:103AE000DBB2002B06D17B68002283F83C2078688B
:103AF000FDF7D8FA7B68242283F83D207B681B6899
:103B0000DA687B681B6822F40052DA60786800F09B
:103B100085FC7B681B681A697B681B6822F49042ED
:103B20001A617B681B685A697B681B6822F02A024D
:103B30005A617B681B68DA687B681B6842F4005234
:103B4000DA607B6800221A647B68202283F83D20BB
:103B50007B68202283F83E20002318460837BD46A4
:103B600080BD80B58AB002AFF860B9603B60134693
:103B7000FB8000237B61FB6893F83D30DBB2202B98
:103B80007CD1BB68002B02D0FB88002B01D1012324
:103B900075E0FB6893F83C30012B01D102236EE005
:103BA000FB68012283F83C20FB6800221A64FB6852
:103BB000212283F83D20FDF789FB7861FB68FA88B4
:103BC0009A84FB68FA88DA84FB689B68B3F5805FA7
:103BD00008D1FB681B69002B04D10023FB61BB6883
:103BE000BB6103E0BB68FB610023BB61FB68002293
:103BF00083F83C202AE03B6800937B690022802107
:103C0000F86800F038FA0346002B01D0032336E0B1
:103C1000FB69002B0BD1BB691B881A46FB681B682C
:103C2000C2F308025A60BB690233BB6107E0FB695B
:103C30001A78FB681B685A60FB690133FB61FB68FB
:103C4000DB8C9BB2013B9AB2FB68DA84FB68DB8CAD
:103C50009BB2002BCFD13B6800937B6900224021AF
:103C6000F86800F008FA0346002B01D0032306E0B1
:103C7000FB68202283F83D20002300E00223184641
:103C80002037BD4680BD80B584B000AFF860B96014
:103C90001346FB80FB6893F83E30DBB2202B1DD12E
:103CA000BB68002B02D0FB88002B01D1012316E05A
:103CB000FB6893F83C30012B01D102230FE0FB6835
:103CC000012283F83C20FB6800221A63FB881A4615
:103CD000B968F86800F019FA034600E002231846B4
:103CE0001037BD4680BD000080B58AB000AF786057
:103CF0007B681B681B687B627B681B68DB683B62B8
:103D00007B681B685B69FB610023BB6100237B61EF
:103D10007B6A03F00F03BB61BB69002B0DD17B6A8B
:103D200003F02003002B08D03B6A03F02003002B94
:103D300003D0786800F0C9FA7BE1BB69002B00F082
:103D4000B180FB6903F00103002B05D13B6A03F44A
:103D50009073002B00F0A6807B6A03F00103002B18
:103D60000AD03B6A03F48073002B05D07B681B6C80
:103D700043F001027B681A647B6A03F00403002BA2
:103D80000AD0FB6903F00103002B05D07B681B6C94
:103D900043F002027B681A647B6A03F00203002B83
:103DA0000AD0FB6903F00103002B05D07B681B6C74
:103DB00043F004027B681A647B6A03F00803002B5B
:103DC0000FD03B6A03F02003002B04D1FB6903F002
:103DD0000103002B05D07B681B6C43F008027B6855
:103DE0001A647B681B6C002B00F01E817B6A03F059
:103DF0002003002B07D03B6A03F02003002B02D0E6
:103E0000786800F062FA7B681B685B6903F0400326
:103E1000002B14BF01230023DBB27B617B681B6C8A
:103E200003F00803002B02D17B69002B31D07868A6
:103E300000F0A4F97B681B685B6903F04003002B6A
:103E400023D07B681B685A697B681B6822F040029C
:103E50005A617B689B6B002B13D07B689B6B764A07
:103E60005A637B689B6B1846FDF7A6FB0346002B45
:103E700016D07B689B6B5B6B7A68926B1046984799
:103E80000EE0786800F0E3F80AE0786800F0DFF808
:103E900006E0786800F0DBF87B6800221A64C3E073
:103EA00000BFC1E07B681B6B012B40F0A1807B6AE7
:103EB00003F01003002B00F09B803B6A03F010031B
:103EC000002B00F095800023FB607B681B681B685B
:103ED000FB607B681B685B68FB60FB687B681B683A
:103EE0005B6903F04003002B4ED07B689B6B1B6823
:103EF0005B683B823B8A002B00F098807B689B8D3F
:103F00003A8A9A4280F092807B683A8ADA857B68A6
:103F10009B6B9B69202B2BD07B681B68DA687B68C6
:103F20001B6822F48072DA607B681B685A697B68C0
:103F30001B6822F001025A617B681B685A697B6822
:103F40001B6822F040025A617B68202283F83E20E1
:103F50007B6800221A637B681B68DA687B681B68D1
:103F600022F01002DA607B689B6B1846FDF7E9FAD5
:103F70007B689A8D7B68DB8D9BB2D31A9BB2194606
:103F8000786800F06DF851E07B689A8D7B68DB8D76
:103F90009BB2D31A7B827B68DB8D9BB2002B47D010
:103FA0007B8A002B44D07B681B68DA687B681B68BF
:103FB00022F49072DA607B681B685A697B681B6820
:103FC00022F001025A617B68202283F83E207B6840
:103FD00000221A637B681B68DA687B681B6822F022
:103FE0001002DA607B8A1946786800F039F81FE021
:103FF0007B6A03F08003002B08D03B6A03F0800348
:10400000002B03D0786800F0F9F812E07B6A03F027
:104010004003002B0DD03B6A03F04003002B08D077
:10402000786800F03AF904E000BF02E000BF00E069
:1040300000BF2837BD4680BDD541000880B483B09D
:1040400000AF786000BF0C37BD4680BC704780B4BD
:1040500083B000AF786000BF0C37BD4680BC7047AE
:1040600080B483B000AF78600B467B8000BF0C3714
:10407000BD4680BC704780B584B000AFF860B960C1
:104080003B601346FB712CE0BB69B3F1FF3F28D0C6
:10409000BB69002B07D0FDF719F902463B68D31A1C
:1040A000BA699A421DD2FB681B68DA68FB681B6814
:1040B00022F4D072DA60FB681B685A69FB681B68DF
:1040C00022F001025A61FB68202283F83D20FB6840
:1040D000202283F83E20FB68002283F83C20032343
:1040E0000FE0FB681B681A68BB681340BA689A4205
:1040F0000CBF01230023DBB21A46FB799A42C3D0DE
:10410000002318461037BD4680BD80B485B000AF8F
:10411000F860B9601346FB80FB68BA689A62FB6876
:10412000FA889A85FB68FA88DA85FB6800221A64A7
:10413000FB68222283F83E20FB68002283F83C20A3
:10414000FB681B68DA68FB681B6842F48072DA60FF
:10415000FB681B685A69FB681B6842F001025A61E0
:10416000FB681B68DA68FB681B6842F02002DA60B3
:10417000002318461437BD4680BC704780B483B016
:1041800000AF78607B681B68DA687B681B6822F484
:104190009072DA607B681B685A697B681B6822F042
:1041A00001025A617B681B6B012B07D17B681B687E
:1041B000DA687B681B6822F01002DA607B682022D4
:1041C00083F83E207B6800221A6300BF0C37BD468F
:1041D00080BC704780B584B000AF78607B685B6A54
:1041E000FB60FB680022DA85FB680022DA84F8684D
:1041F000FFF72DFF00BF1037BD4680BD80B485B0EE
:1042000000AF78607B6893F83D30DBB2212B3ED164
:104210007B689B68B3F5805F14D17B681B69002BBA
:1042200010D17B681B6AFB60FB681B881A467B68A1
:104230001B68C2F308025A607B681B6A9A1C7B6881
:104240001A6208E07B681B6A591C7A6811621A7846
:104250007B681B685A607B68DB8C9BB2013B9BB21E
:104260007A681946D184002B0FD17B681B68DA6805
:104270007B681B6822F08002DA607B681B68DA6862
:104280007B681B6842F04002DA60002300E00223F2
:1042900018461437BD4680BC704780B582B000AF69
:1042A00078607B681B68DA687B681B6822F04002D4
:1042B000DA607B68202283F83D207868FFF7BEFE35
:1042C000002318460837BD4680BD80B586B000AFD4
:1042D00078607B6893F83E30DBB2222B40F0998007
:1042E0007B689B68B3F5805F17D17B681B69002BE7
:1042F00013D100237B617B689B6A3B617B681B68F1
:104300005B689BB2C3F308039AB23B691A807B686F
:104310009B6A9A1C7B689A6226E07B689B6A7B6139
:1043200000233B617B689B68B3F5805F07D07B68A7
:104330009B68002B0AD17B681B69002B06D17B6828
:104340001B685B68DAB27B691A7008E07B681B68DF
:104350005B68DBB203F07F03DAB27B691A707B68BB
:104360009B6A5A1C7B689A627B68DB8D9BB2013B1F
:104370009BB27A681946D185002B48D17B681B68AF
:10438000DA687B681B6822F02002DA607B681B68B1
:10439000DA687B681B6822F48072DA607B681B68CD
:1043A0005A697B681B6822F001025A617B682022EF
:1043B00083F83E207B681B6B012B23D17B68002296
:1043C0001A637B681B68DA687B681B6822F010023E
:1043D000DA607B681B681B6803F01003102B0AD19E
:1043E0000023FB607B681B681B68FB607B681B68A5
:1043F0005B68FB60FB687B689B8D19467868FFF7FC
:104400002FFE02E0786800F071FE002302E0002336
:1044100000E0022318461837BD4680BD80B584B041
:1044200000AF78607B681B681B6923F440517B6890
:10443000DA687B681B680A431A617B689A687B6844
:104440001B691A437B685B691343BB607B681B680D
:10445000DB6823F4B05323F00C037A681268B96860
:104460000B43D3607B681B685B6923F440717B68F6
:104470009A697B681B680A435A617B681B682C4AEF
:10448000934203D1FEF7C6FEF86002E0FEF7AEFEEF
:10449000F860FA6813469B0013449A001A447B683C
:1044A0005B689B00B2FBF3F3224AA2FB03235B0988
:1044B0001901FA6813469B0013449A001A447B685A
:1044C0005B689B00B2FBF3F21A4BA3FB02035B0990
:1044D000642000FB03F3D31A1B013233154AA2FBFD
:1044E00003235B0903F0F0031944FA6813469B00A9
:1044F00013449A001A447B685B689B00B2FBF3F29A
:104500000C4BA3FB02035B09642000FB03F3D31AEB
:104510001B013233074AA2FB03235B0903F00F029E
:104520007B681B680A449A6000BF1037BD4680BD97
:10453000003801401F85EB5180B584B000AF786032
:104540000D4B5B68FB60FEF747FE03460B4AA2FB80
:1045500003239B0C7A6802FB03F37B6000BF064BCE
:104560005A68FB68D21A7B689A42F8D300BF00BF32
:104570001037BD4680BD00BF001000E083DE1B4346
:1045800080B582B000AF786039601E4A7B681360E6
:104590001D4A3B6813600A20FFF7CEFF00216B2005
:1045A00000F034F80A20FFF7C7FF0721192000F0B8
:1045B0002DF80A20FFF7C0FF06211A2000F026F888
:1045C0000A20FFF7B9FF18211B2000F01FF80A206E
:1045D000FFF7B2FF00211C2000F018F80A20FFF7B7
:1045E000ABFF0121382000F011F80A20FFF7A4FFEB
:1045F000054B1B681846FEF78FFE00BF0837BD4607
:1046000080BD00BF0C0100201001002080B586B0E5
:1046100002AF03460A46FB711346BB71FB793B733D
:104620000A20FCF75DFEBB797B730A20FCF758FE7D
:1046300000BF094B186807F10C0202230093022304
:10464000D021FDF775FB0346002BF2D100BF00BF60
:104650001037BD4680BD00BF0C01002080B586B07C
:1046600002AF0346FB7100BF0F4B1868FA1D6423AD
:1046700000930123D021FDF75BFB0346002BF3D110
:1046800000BF094B186807F10F024FF4FA7300934B
:104690000123D121FDF74AFC0346002BF1D1FB7B1E
:1046A00018461037BD4680BD0C01002080B588B08B
:1046B00000AF03460A46FB711346BB710023FB8320
:1046C0004FF000037B61484B1B681846FEF776FEEF
:1046D000BB79022B4ED0022B70DC002B02D0012BB9
:1046E00024D06BE000237B771BE04320FFF7B6FF6D
:1046F00003463B614420FFF7B1FF0346FB603B6983
:104700001B021AB2FB681BB213431BB29AB2FB8B9B
:1047100013449BB2FB830520FCF7E2FD7B7F013352
:104720007B777A7FFB799A42DFD348E000233B779F
:104730001BE04520FFF792FF03463B614620FFF751
:104740008DFF0346FB603B691B021AB2FB681BB27C
:1047500013431BB29AB2FB8B13449BB2FB8305201D
:10476000FCF7BEFD3B7F01333B773A7FFB799A42F2
:10477000DFD324E00023FB761BE04720FFF76EFF2A
:1047800003463B614820FFF769FF0346FB603B6936
:104790001B021AB2FB681BB213431BB29AB2FB8B0B
:1047A00013449BB2FB830520FCF79AFDFB7E01338B
:1047B000FB76FA7EFB799A42DFD300E000BFB7F9BF
:1047C0001E20FB7992FBF3F31846FCF7C1F9034670
:1047D0007B61054B1B681846FEF79EFD7B691846FA
:1047E0002037BD4680BD00BF100100200000000042
:1047F000B0B588B000AF78607B681A688A4B1B68D8
:104800001B689A4240F002814320FFF727FF0346CE
:10481000FB614420FFF722FF0346BB61FB691B02DB
:104820001AB2BB691BB213431AB2804B1A807F4B7A
:104830001B881BB21A467E4B1B6813441846FBF7B5
:10484000D9FD75A3D3E90023FBF768FF02460B46A9
:1048500010461946FCF74AF803461AB2754B1A80FF
:10486000754B1B681846FBF7D7FD04460D46714B88
:104870001B881BB21846FBF7BDFD69A3D3E90023D3
:10488000FBF722FE02460B4620462946FBF766FC54
:1048900002460B4610461946FCF750F80346664A96
:1048A0001360654B1B681846FCF7A6F903461AB25D
:1048B000624B1A804520FFF7D1FE03467B614620FC
:1048C000FFF7CCFE03463B617B691B021AB23B69D2
:1048D0001BB213431AB25A4B1A80594B1B881BB296
:1048E0001A46534B5B6813441846FBF783FD4AA3F3
:1048F000D3E90023FBF712FF02460B461046194688
:10490000FBF7F4FF03461AB24E4B1A804E4B1B685E
:104910001846FBF781FD04460D464A4B1B881BB227
:104920001846FBF767FD3EA3D3E90023FBF7CCFD58
:1049300002460B4620462946FBF710FC02460B4672
:1049400010461946FBF7FAFF03463F4A13603E4BF9
:104950001B681846FCF750F903461AB23B4B1A8005
:104960004720FFF77BFE0346FB604820FFF776FEFB
:104970000346BB60FB681B021AB2BB681BB2134341
:104980001AB2334B1A80324B1B881BB21A46284B83
:104990009B6813441846FBF72DFD1FA3D3E90023A2
:1049A000FBF7BCFE02460B4610461946FBF79EFF7E
:1049B00003461AB2274B1A80274B1B681846FBF791
:1049C0002BFD04460D46234B1B881BB21846FBF7F4
:1049D00011FD13A3D3E90023FBF776FD02460B4636
:1049E00020462946FBF7BAFB02460B4610461946FD
:1049F000FBF7A4FF0346184A1360174B1B681846C1
:104A0000FCF7FAF803461AB2144B1A8000BF20379D
:104A1000BD46B0BDAFF300803D0AD7A3703DFA3F5D
:104A200038F8C264AA60943F100100202C010020D5
:104A30003C0100202601002014010020200100205C
:104A40002E01002028010020180100202201002052
:104A5000300100202A0100201C0100202401002038
:104A600080B500AFFCF732FC02461A4B1B68D31A24
:104A7000642B2DD94FF400511748FCF7CDFF0346A6
:104A8000002B06D1154B1B780133DAB2134B1A7089
:104A900002E0124B00221A70104B1B78132B03D923
:104AA0000F4B03221A700EE00C4B1B78002B07D023
:104AB0000A4B1B78122B03D8094B02221A7002E012
:104AC000074B00221A70FCF701FC0346014A1360F1
:104AD00000BF80BD340100200010014038010020DB
:104AE0003201002080B400AF144BDB68134A23F07E
:104AF0008073D360114BDB68104A43F08073D3603E
:104B00000F4B1B680E4A23F0010313600C4B1B680C
:104B10000B4A43F001031360094B00225A6000BFA7
:104B200000BF00BF064B5B68002B01D0002300E0F4
:104B300001231846BD4680BC704700BFF0ED00E081
:104B4000001000E080B500AFFCF7D2FD00BF80BDD3
:104B500080B500AFFCF7A6FD00BF80BD80B582B078
:104B600000AF7860FFF7F4FF00BF164BDB6803F07F
:104B70000103002BF9D1134B1B69124A43F00203C6
:104B80001361104A7B6853610E4B1B690D4A43F059
:104B90004003136100BF0B4BDB6803F00103002BE4
:104BA000F9D1084B1B69074A23F001031361054B38
:104BB0001B69044A23F00203136100BF0837BD4696
:104BC00080BD00BF0020024080B582B000AF786099
:104BD0003960FFF7BDFF124B1B69114A43F0010317
:104BE000136100BF0E4BDB6803F00103002BF9D10A
:104BF0007B683A6892B21A8000BF094BDB6803F009
:104C00000103002BF9D1064B1B69054A23F0010370
:104C10001361FFF797FF00BF0837BD4680BD00BF97
:104C20000020024080B485B000AF78607B68FB60F4
:104C3000FB681B8818461437BD4680BC70470000CF
:104C400080B400AFBFF34F8F00BF064BDB6803F4A7
:104C5000E0620449044B1343CB60BFF34F8F00BFA6
:104C600000BFFDE700ED00E00400FA0580B500AFED
:104C7000FCF72CFB0246094B1B68D31A084A128822
:104C8000934209D3FCF722FB0346044A1360082130
:104C90000448FCF7F0FE00E000BF80BD4C0100209E
:104CA0000A0000200008014080B500AFFFF71AFF9E
:104CB0003F48FFF7B7FF03461BB21A463D4B1A6049
:104CC0003D48FFF7AFFF03461BB21A46394B5A6007
:104CD0003A48FFF7A7FF03461BB21A46354B9A60C6
:104CE000344B1B684FF6FF7293420BD0314B1B685D
:104CF0004FF6FF72934205D02E4B9B684FF6FF7222
:104D000093424AD12E492F48FFF73AFC00216420F4
:104D1000FFF7CCFC03461846FBF76EFF0346254A17
:104D20001360244B1B685B42224A136001216420FC
:104D3000FFF7BCFC03461846FBF75EFF03461D4A1F
:104D400053601C4B5B685B421A4A5360022164202B
:104D5000FFF7ACFC03461846FBF74EFF0346154A27
:104D60009360144B9B685B42124A93601048FFF7B4
:104D7000F5FE104B1B6819460D48FFF725FF0D4B3C
:104D80005B6819460C48FFF71FFF0A4B9B681946E2
:104D90000A48FFF719FFFFF753FF09490948FFF7D2
:104DA000EFFB012208490948FEF76DFF00BF80BDF7
:104DB00000FC01083C01002004FC010808FC01087B
:104DC0007C0000202800002039010020C4000020C1
:104DD00080B582B000AF00F0B3F8FFF741FE514B51
:104DE0001B78022B05D1002208214F48FCF72BFE2F
:104DF00005E04C4B1B78002B01D1FFF737FF494BE7
:104E00001B78032B04D0494B1B78082B40F085807E
:104E1000012208214448FCF716FE0023FB7109E03B
:104E200008214148FCF727FE3220FCF759FAFB79AC
:104E30000133FB71FB79022BF2D9012208213A4898
:104E4000FCF701FE394B1B78082B04D14FF4FA60B4
:104E5000FCF746FA03E040F6B830FCF741FA0022CE
:104E600008213148FCF7EFFD00211420FFF71EFC5C
:104E700003461846FBF7C0FE03462D4A13602C4B31
:104E80001B685B422A4A1360012208212648FCF76E
:104E9000DAFD01211420FFF709FC03461846FBF751
:104EA000ABFE0346224A5360214B5B685B42204ABB
:104EB0005360002208211C48FCF7C5FD0221142084
:104EC000FFF7F4FB03461846FBF796FE0346184A25
:104ED0009360174B9B685B42154A9360012208213F
:104EE0001148FCF7B0FD1348FFF738FE104B1B6864
:104EF00019461048FFF768FE0D4B5B6819460E48CF
:104F0000FFF762FE0A4B9B6819460C48FFF75CFEF0
:104F10003220FCF7E5F9FFF793FE00BF0837BD46E6
:104F200080BD00BF32010020000801404801002080
:104F30003C01002000FC010804FC010808FC0108F9
:104F400080B582B000AFFCF7C1F90246604B1B6828
:104F5000D31A322B40F2B880FCF7B8F903465C4A0A
:104F600013605C4B1B78013B052B00F2A88001A26B
:104F700052F823F08D4F0008BD4F0008ED4F000898
:104F80001D5000085350000889500008524B9622CB
:104F90001A8078233B71514BB3F90030DBB27B713F
:104FA0004E4BB3F900301B121BB2DBB2BB71391D83
:104FB000642303224A48FEF7D4FD86E0464B96223E
:104FC0001A8079233B71474BB3F90030DBB27B7118
:104FD000444BB3F900301B121BB2DBB2BB71391D5D
:104FE000642303223E48FEF7BCFD6EE03A4B962256
:104FF0001A807A233B713C4BB3F90030DBB27B71F2
:10500000394BB3F900301B121BB2DBB2BB71391D37
:10501000642303223248FEF7A4FD56E02E4B96226D
:105020001A8058233B712D4BB3F90030DBB27B71F2
:105030002A4BB3F900301B121BB2DBB2BB71391D16
:10504000642303222648FEF78CFD224B00221A70AF
:105050003BE0214B96221A8059233B71214BB3F937
:105060000030DBB27B711F4BB3F900301B121BB257
:10507000DBB2BB71391D642303221948FEF771FDB1
:10508000144B00221A7020E0134B96221A805A23E8
:105090003B71154BB3F90030DBB27B71124BB3F9A6
:1050A00000301B121BB2DBB2BB71391D642303221B
:1050B0000B48FEF756FD074B00221A7005E0064B21
:1050C0004FF47A721A8000E000BF0837BD4680BDF9
:1050D00050010020480100200A000020200100208B
:1050E000C4000020220100202401002080B582B0ED
:1050F00000AF78607B681B685A4A934240F0AD80ED
:10510000594B1B78413B392B00F29E8001A252F88B
:1051100023F000BFFD510008495200084952000821
:1051200049520008495200084152000849520008FB
:1051300049520008495200084952000849520008E3
:1051400049520008495200084952000849520008D3
:1051500049520008495200084952000849520008C3
:1051600049520008495200084952000849520008B3
:1051700029520008315200083952000849520008EB
:105180004952000849520008495200084952000893
:1051900049520008075200084952000849520008C5
:1051A0004952000849520008495200084952000873
:1051B0004952000849520008495200084952000863
:1051C0004952000849520008495200084952000853
:1051D0004952000849520008495200084952000843
:1051E0004952000849520008495200084952000833
:1051F0001152000819520008215200081B4B0722C7
:105200001A70FFF71DFD194B07221A70FFF718FDE2
:10521000164B01221A701BE0144B02221A7017E081
:10522000124B03221A7013E0104B04221A700FE085
:105230000E4B05221A700BE00C4B06221A7007E089
:105240000A4B08221A7003E0084B00221A7000BFB4
:10525000012205490648FEF716FD00BF0837BD4686
:1052600080BD00BF00380140390100204801002006
:10527000C400002003460244934200D1704703F863
:10528000011BF9E770B500260C4D0D4C641BA410F2
:10529000A64209D100F01AF800260A4D0A4C641BF8
:1052A000A410A64205D170BD55F8043B98470136BD
:1052B000EEE755F8043B98470136F2E70C53000837
:1052C0000C5300080C53000810530008F8B500BF39
:1052D000F8BC08BC9E467047F8B500BFF8BC08BCD7
:0452E0009E4670472F
:1052E40002030405060708090A0B0C0D0E0F101023
:1052F4000000000000000000010203040607080982
:08530400000000000102030497
:04530C00350100085F
:04531000110100087F
:0C5314000024F400100000000100E80379
:04000005080011D10D
:00000001FF
